:020000040800F2
:10800000000002203D850008ED820008F382000890
:10801000F9820008FF8200080583000800000000C4
:108020000000000000000000000000000B830008BA
:10803000198300080000000027830008358300082A
:108040008D8500088D8500088D8500088D850008C8
:108050008D8500088D8500088D8500088D850008B8
:108060008D8500088D8500088D8500088D850008A8
:108070008D8500088D8500088D8500088D85000898
:108080008D8500088D8500088D8500088D85000888
:108090008D8500088D8500088D8500088D85000878
:1080A0008D8500088D8500088D8500088D85000868
:1080B0008D8500088D8500088D8500088D85000858
:1080C0008D8500088D8500088D8500088D85000848
:1080D0008D8500088D8500088D8500088D85000838
:1080E000418300088D8500088D8500088D85000876
:1080F0008D8500088D8500088D8500088D85000818
:108100008D8500088D8500088D8500088D85000807
:108110008D8500088D8500088D8500088D850008F7
:108120008D8500088D8500088D8500088D850008E7
:108130008D85000800000000000000008D8500080B
:108140008D8500088D8500088D8500088D850008C7
:108150008D8500088D8500088D8500088D850008B7
:108160008D8500088D8500088D8500088D850008A7
:108170008D8500088D8500088D85000800000000B1
:10818000000000008D8500080000000000000000D5
:108190008D85000800000000000000008D850008AB
:1081A0000000000000000000000000008D850008B5
:1081B0008D8500088D8500088D8500088D85000857
:0481C0008D850008A1
:1081C40010B5054C237833B9044B13B10448AFF30D
:1081D40000800123237010BD68000020000000000F
:1081E400F094000808B5034B1BB103490348AFF3EF
:1081F400008008BD000000006C000020F09400081E
:1082040080B586B000AF3B1D00221A605A609A60A8
:10821400DA601A61144B1B6B134A43F005031363B2
:10822400124B1B68114A43F480631360104B104ACD
:108234001B6813604FF400537B604FF48813BB60DA
:108244000023FB603B1D1946094800F067FA002231
:108254000021282000F037FA282000F050FA00BF4F
:108264001837BD4680BD00BF003802400000024000
:108274000008024080B483B000AF786000BF094BAF
:108284001B68084A03F080031360002BF7D0054AEB
:108294007B68536000BF18460C37BD465DF8047B0D
:1082A400704700BF0044004080B582B000AFFFF7C4
:1082B400A7FF00F007F900237B6002E07B6801332D
:1082C4007B607B684CF24F329342F7D9044B5B6975
:1082D400034A83F020035361024800F077FCEAE785
:1082E400000002400895000880B400AFFEE780B4A7
:1082F40000AFFEE780B400AFFEE780B400AFFEE756
:1083040080B400AFFEE780B400AF00BFBD465DF8A7
:10831400047B704780B400AF00BFBD465DF8047BAA
:10832400704780B400AF00BFBD465DF8047B704762
:1083340080B500AF00F02AF900BF80BD80B500AF62
:10834400044800F043FC4FF4005000F07BFB00BFF6
:1083540080BD00BF2095000880B586B000AFF860EE
:10836400B9607A6000237B610AE0AFF300800146C4
:10837400BB685A1CBA60CAB21A707B6901337B614C
:108384007A697B689A42F0DB7B6818461837BD46E9
:1083940080BD80B586B000AFF860B9607A60002314
:1083A4007B6109E0BB685A1CBA601B781846FFF76A
:1083B40061FF7B6901337B617A697B689A42F1DBF7
:1083C4007B6818461837BD4680BD80B483B000AFC3
:1083D40078604FF0FF3318460C37BD465DF8047BD8
:1083E400704780B483B000AF786039603B684FF465
:1083F40000525A60002318460C37BD465DF8047BD2
:10840400704780B483B000AF7860012318460C37FE
:10841400BD465DF8047B704780B485B000AFF8605A
:10842400B9607A60002318461437BD465DF8047BB2
:108434007047000080B586B000AF7860144A154BD1
:10844400D31A7B617B693B61134B1B68002B02D100
:10845400114B124A1A60104B1A687B6813443A692C
:108464009A4207D200F012FB03460C221A604FF026
:10847400FF3309E0084B1B68FB60074B1A687B68F5
:108484001344054A1360FB6818461837BD4680BD7F
:10849400000002200004000084000020A00000204E
:1084A40080B400AF064BD3F88830054A43F4700318
:1084B400C2F8883000BFBD465DF8047B704700BF3A
:1084C40000ED00E080B400AF184B1B6C174A43F476
:1084D40000331364164B1B68154A43F020031360E2
:1084E400134B1B68124A43F080031360104B1B6A42
:1084F4000F4A43F4E06313620D4B1B6A0C4A43F4C6
:10850400E04313620B4B8B229A600A4BDB68094AE7
:1085140043F00C03D360074BDB68064A43F4005373
:10852400D36000BFBD465DF8047B7047003802404D
:108534000000024000440040DFF834D00D480E49EA
:108544000E4A002302E0D458C4500433C4188C42A9
:10855400F9D30B4A0B4C002301E013600432A2420E
:10856400FBD3FFF79DFF00F097FAFFF79DFE7047DE
:10857400000002200000002068000020A4950008EC
:10858400680000209C000020FEE7000080B400AFDB
:10859400064B1B781A46064B1B681344044A1360A7
:1085A40000BFBD465DF8047B704700BF000000209B
:1085B4008800002080B400AF044BDB681B0A03F082
:1085C40007031846BD465DF8047B704700ED00E0E4
:1085D40080B483B000AF0346FB7197F90730002BDA
:1085E4000BDBFB7903F01F02074997F907305B099E
:1085F400012000FA02F241F8232000BF0C37BD46E7
:108604005DF8047B704700BF00E100E080B483B0F4
:1086140000AF03463960FB7197F90730002B0ADB82
:108624003B68DAB20C4997F907301201D2B20B4415
:1086340083F800230AE03B68DAB20849FB7903F0C7
:108644000F03043B1201D2B20B441A7600BF0C375D
:10865400BD465DF8047B704700E100E000ED00E0FA
:1086640080B489B000AFF860B9607A60FB6803F049
:108674000703FB61FB69C3F10703042B28BF042331
:10868400BB61FB690433062B02D9FB69033B00E0A1
:1086940000237B614FF0FF32BB6902FA03F3DA4334
:1086A400BB681A407B699A404FF0FF317B6901FA3D
:1086B40003F3D9437B680B40134318462437BD4664
:1086C4005DF8047B704780B586B000AF0346B9609F
:1086D4007A60FB7300237B61FFF76CFF78617A6833
:1086E400B9687869FFF7BCFF024697F90F30114665
:1086F4001846FFF78BFF00BF1837BD4680BD80B515
:1087040082B000AF0346FB7197F907301846FFF7B4
:108714005FFF00BF0837BD4680BD000080B489B04C
:1087240000AF7860396000237B6100233B61002344
:10873400BB610023FB6165E10122FB6902FA03F3DB
:108744007B613B681B687A6913403B613A697B69CA
:108754009A4240F054813B685B6803F00303012BA9
:1087640005D03B685B6803F00303022B30D17B68C0
:108774009B68BB61FB695B00032202FA03F3DB43E2
:10878400BA691340BB613B68DA68FB695B0002FAB3
:1087940003F3BA691343BB617B68BA699A607B6867
:1087A4005B68BB610122FB6902FA03F3DB43BA692C
:1087B4001340BB613B685B681B0903F00102FB6962
:1087C40002FA03F3BA691343BB617B68BA695A605E
:1087D4003B685B6803F00303032B17D07B68DB68FB
:1087E400BB61FB695B00032202FA03F3DB43BA6952
:1087F4001340BB613B689A68FB695B0002FA03F3B0
:10880400BA691343BB617B68BA69DA603B685B6829
:1088140003F00303022B23D1FB69DA087B680832D7
:1088240053F82230BB61FB6903F007039B000F225E
:1088340002FA03F3DB43BA691340BB613B681A696C
:10884400FB6903F007039B0002FA03F3BA691343BD
:10885400BB61FB69DA087B680832B96943F8221006
:108864007B681B68BB61FB695B00032202FA03F3AC
:10887400DB43BA691340BB613B685B6803F00302E6
:10888400FB695B0002FA03F3BA691343BB617B68BB
:10889400BA691A603B685B6803F44033002B00F04C
:1088A400AE800023FB605D4B5B6C5C4A43F4804309
:1088B40053645A4B5B6C03F48043FB60FB68584A77
:1088C400FB699B08023352F82330BB61FB6903F058
:1088D40003039B000F2202FA03F3DB43BA6913403C
:1088E400BB617B684F4A934225D07B684E4A9342D2
:1088F4001FD07B684D4A934219D07B684C4A9342FF
:1089040013D07B684B4A93420DD07B684A4A93420A
:1089140007D07B68494A934201D106230CE0072320
:108924000AE0052308E0042306E0032304E002230D
:1089340002E0012300E00023FA6902F0030292003E
:108944009340BA691343BB613549FB699B08023301
:10895400BA6941F823203A4B9B68BB613B69DB430E
:10896400BA691340BB613B685B6803F48013002B56
:1089740003D0BA693B691343BB61314ABB69936055
:108984002F4BDB68BB613B69DB43BA691340BB61B6
:108994003B685B6803F40013002B03D0BA693B699E
:1089A4001343BB61264ABB69D360254B5B68BB613B
:1089B4003B69DB43BA691340BB613B685B6803F402
:1089C4000033002B03D0BA693B691343BB611C4AD3
:1089D400BB6953601A4B1B68BB613B69DB43BA69D3
:1089E4001340BB613B685B6803F48033002B03D006
:1089F400BA693B691343BB61114ABB691360FB69E4
:108A04000133FB61FB690F2B7FF696AE00BF00BFFD
:108A14002437BD465DF8047B704700BF0038024030
:108A240000380140000002400004024000080240F7
:108A3400000C0240001002400014024000180240E2
:108A4400003C014080B582B000AF0346FB80084B78
:108A54005A69FB881340002B06D0054AFB885361F2
:108A6400FB88184600F006F800BF0837BD4680BDF5
:108A7400003C014080B483B000AF0346FB8000BFDC
:108A84000C37BD465DF8047B70470000014B186845
:108A9400704700BF0400002070B50D4D0D4C641BE1
:108AA400A4100026A64209D10B4D0C4C00F01EFD6B
:108AB400641BA4100026A64205D170BD55F8043BE2
:108AC40098470136EEE755F8043B98470136F2E73C
:108AD4009C9500089C9500089C950008A0950008AA
:108AE40002440346934200D1704703F8011BF9E79F
:108AF40070B50E46054618B183690BB900F048FA03
:108B0400AB69AC6813B9284600F042FA2C4B9C427E
:108B140020D16C68636EDB0705D4A389980502D461
:108B2400A06D00F0D3FAA38919071DD52369DBB121
:108B3400013EA36816F8011F013BA36039BB002B5B
:108B440038DA22460A21284600F048F8013011D0CC
:108B54000A2511E01B4B9C4201D1AC68DAE71A4BA1
:108B64009C4208BFEC68D5E72146284600F088F807
:108B74000028DDD04FF0FF35636EDA0705D4A389F2
:108B84009B0502D4A06D00F0A2FA284670BD002B0C
:108B940004DAA2699A4206DC0A2904D023685A1C22
:108BA40022601970C5E72246284600F017F8013004
:108BB400BFD1DFE723680A255A1C22601D70DBE75A
:108BC4005C9500087C9500083C950008024B014622
:108BD4001868FFF78DBF00BF04000020F8B50E46EB
:108BE4001446054618B183690BB900F0D1F9214B3D
:108BF4009C422BD16C68A369A360A3891A072FD563
:108C040023696BB323692068C01A6369F6B283428F
:108C1400374604DC2146284600F026F930BBA36819
:108C2400013BA36023685A1C22601E7063690130F3
:108C3400834204D0A389DB0706D50A2E04D121463A
:108C4400284600F011F988B93846F8BD0A4B9C4211
:108C540001D1AC68CFE7094B9C4208BFEC68CAE776
:108C64002146284600F00CF80028CBD04FF0FF37FF
:108C7400EAE700BF5C9500087C9500083C95000875
:108C8400324B70B51D6806460C4625B1AB6913B965
:108C9400284600F07DF92E4B9C420FD16C68A389C5
:108CA400B4F90C2019072CD4DD0611D40923336040
:108CB40042F04003A3814FF0FF303EE0254B9C423D
:108CC40001D1AC68EBE7244B9C4208BFEC68E6E7B3
:108CD400580712D5616B41B104F14403994202D0A3
:108CE400304600F05BFA00236363A38923F0240376
:108CF400A3810023636023692360A38943F00803ED
:108D0400A38123694BB9A38903F42073B3F5007FCE
:108D140003D02146304600F001FAA089B4F90C20B2
:108D240010F001030AD00023A36063695B42A361CE
:108D3400236943B910F08000BAD170BD810758BFD0
:108D44006369A360F4E70020F7E700BF0400002094
:108D54005C9500087C9500083C9500088A892DE9FB
:108D6400F041054610070C4658D44B68002B05DC2F
:108D74000B6C002B02DC0020BDE8F081E66A002EBB
:108D8400F9D0002312F480522F682B6032D0606D2A
:108D9400A3895A0705D56368C01A636B0BB1236CAA
:108DA400C01A00230246E66A216A2846B047431CDB
:108DB400A38906D129681D292CD82A4ACA40D60776
:108DC40028D500226260D9042269226004D5421C9D
:108DD40001D12B6803B96065616B2F600029CAD08B
:108DE40004F14403994202D0284600F0D7F9002048
:108DF4006063C1E7216A01232846B047411CC7D1FB
:108E04002B68002BC4D01D2B01D0162B01D12F6051
:108E1400B1E7A38943F04003A381ADE70F69002FB5
:108E2400A9D093070E6808BF4B690F6018BF0023D1
:108E3400A6EB07088B60B8F1000F9CDD216AA66AD7
:108E440043463A462846B047002806DCA38943F047
:108E54004003A3814FF0FF308EE70744A8EB0008DE
:108E6400E9E700BF0100402038B50B6905460C4610
:108E740013B90025284638BD18B183690BB900F031
:108E840087F8144B9C421BD16C68B4F90C30002B4E
:108E9400EFD0626ED00704D4990502D4A06D00F01F
:108EA40015F928462146FFF759FF636EDA07054690
:108EB400E0D4A3899B05DDD4A06D00F008F9D9E7BF
:108EC400054B9C4201D1AC68DFE7044B9C4208BFD0
:108ED400EC68DAE75C9500087C9500083C9500088E
:108EE400002310B50446C0E90033C0E904338360AD
:108EF40081814366C2818361194608225C30FFF791
:108F0400EFFD054B6362054BA362054BE362054B22
:108F14002462236310BD00BF81930008A39300085B
:108F2400DB930008FF930008014900F0AFB800BFCD
:108F34006D8E000870B568224D1E55430E4605F12E
:108F4400740100F097F9044640B10021C0E900160D
:108F54000C30A06005F16802FFF7C2FD204670BD29
:108F6400014800F0B3B800BF8D000020014800F0B4
:108F7400AEB800BF8D000020014800F0A7B800BFC4
:108F84008E000020014800F0A2B800BF8E0000202F
:108F940010B50446FFF7F0FFA3691BB1BDE810400C
:108FA400FFF7F0BFC4E912332365134B134A1B6860
:108FB400A262A34204BF0123A361204600F020F86B
:108FC4006060204600F01CF8A060204600F018F80D
:108FD4000022E06004216068FFF782FFA06801229C
:108FE4000921FFF77DFFE06802221221FFF778FFD5
:108FF4000123A361D2E700BF389500082D8F000834
:10900400F8B50746FFF7ACFF1E4B1E68B36913B9EA
:109014003046FFF7BDFF4836D6E90134013B03D59E
:1090240033680BB33668F7E7B4F90C50D5B9164B6F
:10903400E36004F15800656600F047F8FFF796FF17
:10904400C4E90155C4E904552560A56108222946EF
:1090540004F15C00FFF744FDC4E90D55C4E9125561
:109064002046F8BD6834D9E704213846FFF762FF8B
:10907400044630600028D5D1FFF778FF0C233B600D
:10908400EEE700BF389500080100FFFF2DE9F84323
:109094000646884600F148040027D4E90195B9F151
:1090A400010905D52468002CF7D13846BDE8F883BA
:1090B400AB89012B07D9B5F90E30013303D029460A
:1090C4003046C04707436835E9E770477047704743
:1090D40070B50E46B1F90E10002996B014461D461F
:1090E40008DAB6F90C3000222A601A0610D44FF4BC
:1090F40080630EE06A4600F0A7F90028F1DB019ACC
:1091040002F47042A2F500535A425A412A60EEE733
:1091140040230020236016B070BD00008B8973B516
:109124009D0706460C4607D504F1470323602361D7
:109134000123636102B070BD01AB6A46FFF7C8FF4B
:1091440000990546304600F095F848B9B4F90C305A
:109154009A05EFD423F0030343F00203A381E3E76A
:109164000D4BB362A389206043F08003A381009B6D
:109174006361019B20615BB1B4F90E10304600F0CD
:1091840075F928B1A38923F0030343F00103A381F4
:10919400A0890543A581CDE72D8F000837B50029A7
:1091A40044D051F8043C0190002BA1F10404B8BF51
:1091B400E41800F07DF91E4A0198136833B963601E
:1091C400146003B0BDE8304000F078B9A34208D978
:1091D400256861198B4201BF19685B6849192160D0
:1091E400EDE71A465B680BB1A342FAD9116855182A
:1091F400A5420BD1246821445418A3421160E0D144
:109204001C685B68536021441160DAE702D90C23BF
:109214000360D6E7256861198B4204BF19685B684F
:10922400636004BF491921605460CAE703B030BDCC
:109234009000002070B50E4E0C463168054611B9F9
:1092440000F08CF830602146284600F087F8431C73
:109254000AD0C41C24F00304A04207D0211A2846D3
:1092640000F07CF8013001D14FF0FF34204670BD8E
:10927400940000202DE9F041CD1C25F003050835AC
:109284000C2D38BF0C25002D074601DBA94205D95A
:109294000C233B6000263046BDE8F0812E4E00F0E2
:1092A40007F933681C4634BB29463846FFF7C2FF2A
:1092B400431C04464DD134682646002E40D1236811
:1092C4003146384604EB030800F048F880453AD1AB
:1092D400216803356D1A25F0030508350C2D38BFB8
:1092E4000C2529463846FFF7A5FF01302BD023680B
:1092F4002B4423600EE02268521B1ED40B2A16D97D
:109304006119A342256018BF5960636808BF3160C2
:1093140062514B60384604F10B0600F0CFF826F09A
:109324000706231DF21AB6D09B1BA350B3E762684D
:10933400A3420CBF32605A60ECE723466468B2E78C
:1093440034467668B9E70C233B60384600F0B6F83B
:10935400A1E72560DEE700BF9000002038B5064D88
:109364000023044608462B60FFF764F8431C02D12F
:109374002B6803B1236038BD9800002010B50C465B
:10938400B1F90E1000F0A0F80028ABBF636DA389FB
:109394001B1823F48053ACBF6365A38110BD2DE972
:1093A400F0411F468B89DB0505460C46164605D55C
:1093B400B1F90E100223002200F068F8A389B4F971
:1093C4000E1023F48053A38132463B462846BDE861
:1093D400F04100F017B810B50C46B1F90E1000F0CA
:1093E40055F8431CA38915BF606523F4805343F4E7
:1093F4008053A38118BFA38110BDB1F90E1000F0F2
:1094040013B8000038B5074D04460846114600223B
:109414002A601A46FEF7BDFF431C02D12B6803B134
:10942400236038BD9800002038B5064D002304465B
:1094340008462B60FEF7C9FF431C02D12B6803B119
:10944400236038BD9800002038B5074D002304463A
:10945400084611462B60FEF7C4FF431C02D12B685B
:1094640003B1236038BD00BF9800002038B5064D15
:109474000023044608462B60FEF7C3FF431C02D1B9
:109484002B6803B1236038BD9800002038B5074D20
:1094940004460846114600222A601A46FEF7BCFF1D
:1094A400431C02D12B6803B1236038BD980000200F
:1094B4000148FFF70BBE00BF8C0000200148FFF7F6
:1094C40006BE00BF8C00002038B5074D0446084690
:1094D400114600222A601A46FEF73EFF431C02D1C1
:1094E4002B6803B1236038BD98000020F8B500BF95
:1094F400F8BC08BC9E467047F8B500BFF8BC08BC71
:049504009E467047C8
:1095080054686973206973204170706C6963617471
:10951800696F6E300D0000005075736820627574B5
:10952800746F6E20707265737365640D00000000BF
:1095380008000020000000000000000000000000FB
:109548000000000000000000000000000000000013
:109558000000000000000000000000000000000003
:1095680000000000000000000000000000000000F3
:1095780000000000000000000000000000000000E3
:1095880000000000000000000000000000000000D3
:0495980000000000CF
:04959C00E981000859
:0495A000C581000879
:1095A4000100000008000020000000005C95000895
:1095B4007C9500083C9500080000000000000000B5
:1095C4000000000000000000000000000000000097
:1095D4000000000000000000000000000000000087
:1095E4000000000000000000000000000000000077
:1095F4000000000000000000000000000000000067
:0896040000000000000000005E
:040000050800853D2D
:00000001FF
